{
  "transactions": [
    {
      "hash": "0x9b2f2b24363b29315efb22ce6e5bee34f151dad2b34ebd12e8a01710a2968c21",
      "transactionType": "CALL",
      "contractName": null,
      "contractAddress": "0x779877a7b0d9e8603169ddbd7836e478b4624789",
      "function": "transferAndCall(address,uint256,bytes)",
      "arguments": [
        "0x9DdfaCa8183c41ad55329BdeeD9F6A8d53168B1B",
        "3000000000000000000",
        "0xdb5b9098d9c430d6c3d4c3e73b73c51e9162a05507d4cc71d2135ec49c3c795a"
      ],
      "transaction": {
        "from": "0xd6330da46b06ab696162e13a5b4d11589db89d99",
        "to": "0x779877a7b0d9e8603169ddbd7836e478b4624789",
        "gas": "0x14cbb",
        "value": "0x0",
        "input": "0x4000aea00000000000000000000000009ddfaca8183c41ad55329bdeed9f6a8d53168b1b00000000000000000000000000000000000000000000000029a2241af62c000000000000000000000000000000000000000000000000000000000000000000600000000000000000000000000000000000000000000000000000000000000020db5b9098d9c430d6c3d4c3e73b73c51e9162a05507d4cc71d2135ec49c3c795a",
        "nonce": "0x4",
        "chainId": "0xaa36a7"
      },
      "additionalContracts": [],
      "isFixedGasLimit": false
    }
  ],
  "receipts": [
    {
      "status": "0x1",
      "cumulativeGasUsed": "0x84c66c",
      "logs": [
        {
          "address": "0x779877a7b0d9e8603169ddbd7836e478b4624789",
          "topics": [
            "0xddf252ad1be2c89b69c2b068fc378daa952ba7f163c4a11628f55a4df523b3ef",
            "0x000000000000000000000000d6330da46b06ab696162e13a5b4d11589db89d99",
            "0x0000000000000000000000009ddfaca8183c41ad55329bdeed9f6a8d53168b1b"
          ],
          "data": "0x00000000000000000000000000000000000000000000000029a2241af62c0000",
          "blockHash": "0x01030705a834b7cb1770b28204ac67578201a05a026d426de55f10557bde5c03",
          "blockNumber": "0x79db9b",
          "transactionHash": "0x9b2f2b24363b29315efb22ce6e5bee34f151dad2b34ebd12e8a01710a2968c21",
          "transactionIndex": "0x6b",
          "logIndex": "0x9a",
          "removed": false
        },
        {
          "address": "0x779877a7b0d9e8603169ddbd7836e478b4624789",
          "topics": [
            "0xe19260aff97b920c7df27010903aeb9c8d2be5d310a2c67824cf3f15396e4c16",
            "0x000000000000000000000000d6330da46b06ab696162e13a5b4d11589db89d99",
            "0x0000000000000000000000009ddfaca8183c41ad55329bdeed9f6a8d53168b1b"
          ],
          "data": "0x00000000000000000000000000000000000000000000000029a2241af62c000000000000000000000000000000000000000000000000000000000000000000400000000000000000000000000000000000000000000000000000000000000020db5b9098d9c430d6c3d4c3e73b73c51e9162a05507d4cc71d2135ec49c3c795a",
          "blockHash": "0x01030705a834b7cb1770b28204ac67578201a05a026d426de55f10557bde5c03",
          "blockNumber": "0x79db9b",
          "transactionHash": "0x9b2f2b24363b29315efb22ce6e5bee34f151dad2b34ebd12e8a01710a2968c21",
          "transactionIndex": "0x6b",
          "logIndex": "0x9b",
          "removed": false
        },
        {
          "address": "0x9ddfaca8183c41ad55329bdeed9f6a8d53168b1b",
          "topics": [
            "0x1ced9348ff549fceab2ac57cd3a9de38edaaab274b725ee82c23e8fc8c4eec7a",
            "0xdb5b9098d9c430d6c3d4c3e73b73c51e9162a05507d4cc71d2135ec49c3c795a"
          ],
          "data": "0x0000000000000000000000000000000000000000000000004563918244f400000000000000000000000000000000000000000000000000006f05b59d3b200000",
          "blockHash": "0x01030705a834b7cb1770b28204ac67578201a05a026d426de55f10557bde5c03",
          "blockNumber": "0x79db9b",
          "transactionHash": "0x9b2f2b24363b29315efb22ce6e5bee34f151dad2b34ebd12e8a01710a2968c21",
          "transactionIndex": "0x6b",
          "logIndex": "0x9c",
          "removed": false
        }
      ],
      "logsBloom": "0x00000004000000000000000000020000000000000020000000000000020000000000000000000000000000000000000000000000000000000000000000000000000000000000000000000008000004000000000000000000000020000020000008000000000000800000010000000000000000000000000000000010000040000000000000000000000000010000800000000020008000000000000000000000000000000000000000000000010000000000000000000000000004000000000000000002000000000000000200000000000000000000000100000000000000000010000000000000800000000000000000000000000000000000000000000000",
      "type": "0x2",
      "transactionHash": "0x9b2f2b24363b29315efb22ce6e5bee34f151dad2b34ebd12e8a01710a2968c21",
      "transactionIndex": "0x6b",
      "blockHash": "0x01030705a834b7cb1770b28204ac67578201a05a026d426de55f10557bde5c03",
      "blockNumber": "0x79db9b",
      "gasUsed": "0xf0e5",
      "effectiveGasPrice": "0x2da691165",
      "from": "0xd6330da46b06ab696162e13a5b4d11589db89d99",
      "to": "0x779877a7b0d9e8603169ddbd7836e478b4624789",
      "contractAddress": null
    }
  ],
  "libraries": [],
  "pending": [],
  "returns": {},
  "timestamp": 1743000720,
  "chain": 11155111,
  "commit": "e6c8bde"
}